{
	"contracts/Praktikum2/T2_NUR SALAMAH AZZAHRAH_2210631170095/DataStore2.sol": {
		"DataStore2": {
			"abi": [
				{
					"inputs": [
						{
							"internalType": "uint256",
							"name": "_data",
							"type": "uint256"
						}
					],
					"name": "doSomething",
					"outputs": [],
					"stateMutability": "nonpayable",
					"type": "function"
				},
				{
					"inputs": [],
					"name": "readData",
					"outputs": [
						{
							"internalType": "uint256",
							"name": "",
							"type": "uint256"
						}
					],
					"stateMutability": "view",
					"type": "function"
				},
				{
					"inputs": [
						{
							"internalType": "uint256",
							"name": "_data",
							"type": "uint256"
						}
					],
					"name": "storeData",
					"outputs": [],
					"stateMutability": "nonpayable",
					"type": "function"
				}
			],
			"devdoc": {
				"kind": "dev",
				"methods": {},
				"version": 1
			},
			"evm": {
				"assembly": "    /* \"contracts/Praktikum2/T2_NUR SALAMAH AZZAHRAH_2210631170095/DataStore2.sol\":90:402  contract DataStore2 is DataStore1 {... */\n  mstore(0x40, 0x80)\n  callvalue\n  dup1\n  iszero\n  tag_1\n  jumpi\n  0x00\n  dup1\n  revert\ntag_1:\n  pop\n  dataSize(sub_0)\n  dup1\n  dataOffset(sub_0)\n  0x00\n  codecopy\n  0x00\n  return\nstop\n\nsub_0: assembly {\n        /* \"contracts/Praktikum2/T2_NUR SALAMAH AZZAHRAH_2210631170095/DataStore2.sol\":90:402  contract DataStore2 is DataStore1 {... */\n      mstore(0x40, 0x80)\n      callvalue\n      dup1\n      iszero\n      tag_1\n      jumpi\n      0x00\n      dup1\n      revert\n    tag_1:\n      pop\n      jumpi(tag_2, lt(calldatasize, 0x04))\n      shr(0xe0, calldataload(0x00))\n      dup1\n      0x16b95176\n      eq\n      tag_3\n      jumpi\n      dup1\n      0xa6b206bf\n      eq\n      tag_4\n      jumpi\n      dup1\n      0xbef55ef3\n      eq\n      tag_5\n      jumpi\n    tag_2:\n      0x00\n      dup1\n      revert\n        /* \"contracts/Praktikum2/T2_NUR SALAMAH AZZAHRAH_2210631170095/DataStore1.sol\":144:216  function storeData(uint256 _data) public {... */\n    tag_3:\n      tag_6\n      0x04\n      dup1\n      calldatasize\n      sub\n      dup2\n      add\n      swap1\n      tag_7\n      swap2\n      swap1\n      tag_8\n      jump\t// in\n    tag_7:\n      tag_9\n      jump\t// in\n    tag_6:\n      stop\n        /* \"contracts/Praktikum2/T2_NUR SALAMAH AZZAHRAH_2210631170095/DataStore2.sol\":169:257  function doSomething(uint256 _data) public override {... */\n    tag_4:\n      tag_10\n      0x04\n      dup1\n      calldatasize\n      sub\n      dup2\n      add\n      swap1\n      tag_11\n      swap2\n      swap1\n      tag_8\n      jump\t// in\n    tag_11:\n      tag_12\n      jump\t// in\n    tag_10:\n      stop\n        /* \"contracts/Praktikum2/T2_NUR SALAMAH AZZAHRAH_2210631170095/DataStore2.sol\":319:399  function readData() public view returns (uint256) {... */\n    tag_5:\n      tag_13\n      tag_14\n      jump\t// in\n    tag_13:\n      mload(0x40)\n      tag_15\n      swap2\n      swap1\n      tag_16\n      jump\t// in\n    tag_15:\n      mload(0x40)\n      dup1\n      swap2\n      sub\n      swap1\n      return\n        /* \"contracts/Praktikum2/T2_NUR SALAMAH AZZAHRAH_2210631170095/DataStore1.sol\":144:216  function storeData(uint256 _data) public {... */\n    tag_9:\n        /* \"contracts/Praktikum2/T2_NUR SALAMAH AZZAHRAH_2210631170095/DataStore1.sol\":203:208  _data */\n      dup1\n        /* \"contracts/Praktikum2/T2_NUR SALAMAH AZZAHRAH_2210631170095/DataStore1.sol\":196:200  data */\n      0x00\n        /* \"contracts/Praktikum2/T2_NUR SALAMAH AZZAHRAH_2210631170095/DataStore1.sol\":196:208  data = _data */\n      dup2\n      swap1\n      sstore\n      pop\n        /* \"contracts/Praktikum2/T2_NUR SALAMAH AZZAHRAH_2210631170095/DataStore1.sol\":144:216  function storeData(uint256 _data) public {... */\n      pop\n      jump\t// out\n        /* \"contracts/Praktikum2/T2_NUR SALAMAH AZZAHRAH_2210631170095/DataStore2.sol\":169:257  function doSomething(uint256 _data) public override {... */\n    tag_12:\n        /* \"contracts/Praktikum2/T2_NUR SALAMAH AZZAHRAH_2210631170095/DataStore2.sol\":244:249  _data */\n      dup1\n        /* \"contracts/Praktikum2/T2_NUR SALAMAH AZZAHRAH_2210631170095/DataStore2.sol\":239:241  10 */\n      0x0a\n        /* \"contracts/Praktikum2/T2_NUR SALAMAH AZZAHRAH_2210631170095/DataStore2.sol\":239:249  10 + _data */\n      tag_19\n      swap2\n      swap1\n      tag_20\n      jump\t// in\n    tag_19:\n        /* \"contracts/Praktikum2/T2_NUR SALAMAH AZZAHRAH_2210631170095/DataStore2.sol\":232:236  data */\n      0x00\n        /* \"contracts/Praktikum2/T2_NUR SALAMAH AZZAHRAH_2210631170095/DataStore2.sol\":232:249  data = 10 + _data */\n      dup2\n      swap1\n      sstore\n      pop\n        /* \"contracts/Praktikum2/T2_NUR SALAMAH AZZAHRAH_2210631170095/DataStore2.sol\":169:257  function doSomething(uint256 _data) public override {... */\n      pop\n      jump\t// out\n        /* \"contracts/Praktikum2/T2_NUR SALAMAH AZZAHRAH_2210631170095/DataStore2.sol\":319:399  function readData() public view returns (uint256) {... */\n    tag_14:\n        /* \"contracts/Praktikum2/T2_NUR SALAMAH AZZAHRAH_2210631170095/DataStore2.sol\":360:367  uint256 */\n      0x00\n        /* \"contracts/Praktikum2/T2_NUR SALAMAH AZZAHRAH_2210631170095/DataStore2.sol\":387:391  data */\n      dup1\n      sload\n        /* \"contracts/Praktikum2/T2_NUR SALAMAH AZZAHRAH_2210631170095/DataStore2.sol\":380:391  return data */\n      swap1\n      pop\n        /* \"contracts/Praktikum2/T2_NUR SALAMAH AZZAHRAH_2210631170095/DataStore2.sol\":319:399  function readData() public view returns (uint256) {... */\n      swap1\n      jump\t// out\n        /* \"#utility.yul\":88:205   */\n    tag_23:\n        /* \"#utility.yul\":197:198   */\n      0x00\n        /* \"#utility.yul\":194:195   */\n      dup1\n        /* \"#utility.yul\":187:199   */\n      revert\n        /* \"#utility.yul\":334:411   */\n    tag_25:\n        /* \"#utility.yul\":371:378   */\n      0x00\n        /* \"#utility.yul\":400:405   */\n      dup2\n        /* \"#utility.yul\":389:405   */\n      swap1\n      pop\n        /* \"#utility.yul\":334:411   */\n      swap2\n      swap1\n      pop\n      jump\t// out\n        /* \"#utility.yul\":417:539   */\n    tag_26:\n        /* \"#utility.yul\":490:514   */\n      tag_36\n        /* \"#utility.yul\":508:513   */\n      dup2\n        /* \"#utility.yul\":490:514   */\n      tag_25\n      jump\t// in\n    tag_36:\n        /* \"#utility.yul\":483:488   */\n      dup2\n        /* \"#utility.yul\":480:515   */\n      eq\n        /* \"#utility.yul\":470:533   */\n      tag_37\n      jumpi\n        /* \"#utility.yul\":529:530   */\n      0x00\n        /* \"#utility.yul\":526:527   */\n      dup1\n        /* \"#utility.yul\":519:531   */\n      revert\n        /* \"#utility.yul\":470:533   */\n    tag_37:\n        /* \"#utility.yul\":417:539   */\n      pop\n      jump\t// out\n        /* \"#utility.yul\":545:684   */\n    tag_27:\n        /* \"#utility.yul\":591:596   */\n      0x00\n        /* \"#utility.yul\":629:635   */\n      dup2\n        /* \"#utility.yul\":616:636   */\n      calldataload\n        /* \"#utility.yul\":607:636   */\n      swap1\n      pop\n        /* \"#utility.yul\":645:678   */\n      tag_39\n        /* \"#utility.yul\":672:677   */\n      dup2\n        /* \"#utility.yul\":645:678   */\n      tag_26\n      jump\t// in\n    tag_39:\n        /* \"#utility.yul\":545:684   */\n      swap3\n      swap2\n      pop\n      pop\n      jump\t// out\n        /* \"#utility.yul\":690:1019   */\n    tag_8:\n        /* \"#utility.yul\":749:755   */\n      0x00\n        /* \"#utility.yul\":798:800   */\n      0x20\n        /* \"#utility.yul\":786:795   */\n      dup3\n        /* \"#utility.yul\":777:784   */\n      dup5\n        /* \"#utility.yul\":773:796   */\n      sub\n        /* \"#utility.yul\":769:801   */\n      slt\n        /* \"#utility.yul\":766:885   */\n      iszero\n      tag_41\n      jumpi\n        /* \"#utility.yul\":804:883   */\n      tag_42\n      tag_23\n      jump\t// in\n    tag_42:\n        /* \"#utility.yul\":766:885   */\n    tag_41:\n        /* \"#utility.yul\":924:925   */\n      0x00\n        /* \"#utility.yul\":949:1002   */\n      tag_43\n        /* \"#utility.yul\":994:1001   */\n      dup5\n        /* \"#utility.yul\":985:991   */\n      dup3\n        /* \"#utility.yul\":974:983   */\n      dup6\n        /* \"#utility.yul\":970:992   */\n      add\n        /* \"#utility.yul\":949:1002   */\n      tag_27\n      jump\t// in\n    tag_43:\n        /* \"#utility.yul\":939:1002   */\n      swap2\n      pop\n        /* \"#utility.yul\":895:1012   */\n      pop\n        /* \"#utility.yul\":690:1019   */\n      swap3\n      swap2\n      pop\n      pop\n      jump\t// out\n        /* \"#utility.yul\":1025:1143   */\n    tag_28:\n        /* \"#utility.yul\":1112:1136   */\n      tag_45\n        /* \"#utility.yul\":1130:1135   */\n      dup2\n        /* \"#utility.yul\":1112:1136   */\n      tag_25\n      jump\t// in\n    tag_45:\n        /* \"#utility.yul\":1107:1110   */\n      dup3\n        /* \"#utility.yul\":1100:1137   */\n      mstore\n        /* \"#utility.yul\":1025:1143   */\n      pop\n      pop\n      jump\t// out\n        /* \"#utility.yul\":1149:1371   */\n    tag_16:\n        /* \"#utility.yul\":1242:1246   */\n      0x00\n        /* \"#utility.yul\":1280:1282   */\n      0x20\n        /* \"#utility.yul\":1269:1278   */\n      dup3\n        /* \"#utility.yul\":1265:1283   */\n      add\n        /* \"#utility.yul\":1257:1283   */\n      swap1\n      pop\n        /* \"#utility.yul\":1293:1364   */\n      tag_47\n        /* \"#utility.yul\":1361:1362   */\n      0x00\n        /* \"#utility.yul\":1350:1359   */\n      dup4\n        /* \"#utility.yul\":1346:1363   */\n      add\n        /* \"#utility.yul\":1337:1343   */\n      dup5\n        /* \"#utility.yul\":1293:1364   */\n      tag_28\n      jump\t// in\n    tag_47:\n        /* \"#utility.yul\":1149:1371   */\n      swap3\n      swap2\n      pop\n      pop\n      jump\t// out\n        /* \"#utility.yul\":1377:1557   */\n    tag_29:\n        /* \"#utility.yul\":1425:1502   */\n      0x4e487b7100000000000000000000000000000000000000000000000000000000\n        /* \"#utility.yul\":1422:1423   */\n      0x00\n        /* \"#utility.yul\":1415:1503   */\n      mstore\n        /* \"#utility.yul\":1522:1526   */\n      0x11\n        /* \"#utility.yul\":1519:1520   */\n      0x04\n        /* \"#utility.yul\":1512:1527   */\n      mstore\n        /* \"#utility.yul\":1546:1550   */\n      0x24\n        /* \"#utility.yul\":1543:1544   */\n      0x00\n        /* \"#utility.yul\":1536:1551   */\n      revert\n        /* \"#utility.yul\":1563:1754   */\n    tag_20:\n        /* \"#utility.yul\":1603:1606   */\n      0x00\n        /* \"#utility.yul\":1622:1642   */\n      tag_50\n        /* \"#utility.yul\":1640:1641   */\n      dup3\n        /* \"#utility.yul\":1622:1642   */\n      tag_25\n      jump\t// in\n    tag_50:\n        /* \"#utility.yul\":1617:1642   */\n      swap2\n      pop\n        /* \"#utility.yul\":1656:1676   */\n      tag_51\n        /* \"#utility.yul\":1674:1675   */\n      dup4\n        /* \"#utility.yul\":1656:1676   */\n      tag_25\n      jump\t// in\n    tag_51:\n        /* \"#utility.yul\":1651:1676   */\n      swap3\n      pop\n        /* \"#utility.yul\":1699:1700   */\n      dup3\n        /* \"#utility.yul\":1696:1697   */\n      dup3\n        /* \"#utility.yul\":1692:1701   */\n      add\n        /* \"#utility.yul\":1685:1701   */\n      swap1\n      pop\n        /* \"#utility.yul\":1720:1723   */\n      dup1\n        /* \"#utility.yul\":1717:1718   */\n      dup3\n        /* \"#utility.yul\":1714:1724   */\n      gt\n        /* \"#utility.yul\":1711:1747   */\n      iszero\n      tag_52\n      jumpi\n        /* \"#utility.yul\":1727:1745   */\n      tag_53\n      tag_29\n      jump\t// in\n    tag_53:\n        /* \"#utility.yul\":1711:1747   */\n    tag_52:\n        /* \"#utility.yul\":1563:1754   */\n      swap3\n      swap2\n      pop\n      pop\n      jump\t// out\n\n    auxdata: 0xa26469706673582212200ecf6c5520e97705147954caccc8d9a1eadf545989a8e5d77274a1c7f15c71e864736f6c634300081a0033\n}\n",
				"bytecode": {
					"linkReferences": {},
					"object": "6080604052348015600e575f80fd5b506101df8061001c5f395ff3fe608060405234801561000f575f80fd5b506004361061003f575f3560e01c806316b9517614610043578063a6b206bf1461005f578063bef55ef31461007b575b5f80fd5b61005d600480360381019061005891906100f6565b610099565b005b610079600480360381019061007491906100f6565b6100a2565b005b6100836100b7565b6040516100909190610130565b60405180910390f35b805f8190555050565b80600a6100af9190610176565b5f8190555050565b5f8054905090565b5f80fd5b5f819050919050565b6100d5816100c3565b81146100df575f80fd5b50565b5f813590506100f0816100cc565b92915050565b5f6020828403121561010b5761010a6100bf565b5b5f610118848285016100e2565b91505092915050565b61012a816100c3565b82525050565b5f6020820190506101435f830184610121565b92915050565b7f4e487b71000000000000000000000000000000000000000000000000000000005f52601160045260245ffd5b5f610180826100c3565b915061018b836100c3565b92508282019050808211156101a3576101a2610149565b5b9291505056fea26469706673582212200ecf6c5520e97705147954caccc8d9a1eadf545989a8e5d77274a1c7f15c71e864736f6c634300081a0033",
					"opcodes": "PUSH1 0x80 PUSH1 0x40 MSTORE CALLVALUE DUP1 ISZERO PUSH1 0xE JUMPI PUSH0 DUP1 REVERT JUMPDEST POP PUSH2 0x1DF DUP1 PUSH2 0x1C PUSH0 CODECOPY PUSH0 RETURN INVALID PUSH1 0x80 PUSH1 0x40 MSTORE CALLVALUE DUP1 ISZERO PUSH2 0xF JUMPI PUSH0 DUP1 REVERT JUMPDEST POP PUSH1 0x4 CALLDATASIZE LT PUSH2 0x3F JUMPI PUSH0 CALLDATALOAD PUSH1 0xE0 SHR DUP1 PUSH4 0x16B95176 EQ PUSH2 0x43 JUMPI DUP1 PUSH4 0xA6B206BF EQ PUSH2 0x5F JUMPI DUP1 PUSH4 0xBEF55EF3 EQ PUSH2 0x7B JUMPI JUMPDEST PUSH0 DUP1 REVERT JUMPDEST PUSH2 0x5D PUSH1 0x4 DUP1 CALLDATASIZE SUB DUP2 ADD SWAP1 PUSH2 0x58 SWAP2 SWAP1 PUSH2 0xF6 JUMP JUMPDEST PUSH2 0x99 JUMP JUMPDEST STOP JUMPDEST PUSH2 0x79 PUSH1 0x4 DUP1 CALLDATASIZE SUB DUP2 ADD SWAP1 PUSH2 0x74 SWAP2 SWAP1 PUSH2 0xF6 JUMP JUMPDEST PUSH2 0xA2 JUMP JUMPDEST STOP JUMPDEST PUSH2 0x83 PUSH2 0xB7 JUMP JUMPDEST PUSH1 0x40 MLOAD PUSH2 0x90 SWAP2 SWAP1 PUSH2 0x130 JUMP JUMPDEST PUSH1 0x40 MLOAD DUP1 SWAP2 SUB SWAP1 RETURN JUMPDEST DUP1 PUSH0 DUP2 SWAP1 SSTORE POP POP JUMP JUMPDEST DUP1 PUSH1 0xA PUSH2 0xAF SWAP2 SWAP1 PUSH2 0x176 JUMP JUMPDEST PUSH0 DUP2 SWAP1 SSTORE POP POP JUMP JUMPDEST PUSH0 DUP1 SLOAD SWAP1 POP SWAP1 JUMP JUMPDEST PUSH0 DUP1 REVERT JUMPDEST PUSH0 DUP2 SWAP1 POP SWAP2 SWAP1 POP JUMP JUMPDEST PUSH2 0xD5 DUP2 PUSH2 0xC3 JUMP JUMPDEST DUP2 EQ PUSH2 0xDF JUMPI PUSH0 DUP1 REVERT JUMPDEST POP JUMP JUMPDEST PUSH0 DUP2 CALLDATALOAD SWAP1 POP PUSH2 0xF0 DUP2 PUSH2 0xCC JUMP JUMPDEST SWAP3 SWAP2 POP POP JUMP JUMPDEST PUSH0 PUSH1 0x20 DUP3 DUP5 SUB SLT ISZERO PUSH2 0x10B JUMPI PUSH2 0x10A PUSH2 0xBF JUMP JUMPDEST JUMPDEST PUSH0 PUSH2 0x118 DUP5 DUP3 DUP6 ADD PUSH2 0xE2 JUMP JUMPDEST SWAP2 POP POP SWAP3 SWAP2 POP POP JUMP JUMPDEST PUSH2 0x12A DUP2 PUSH2 0xC3 JUMP JUMPDEST DUP3 MSTORE POP POP JUMP JUMPDEST PUSH0 PUSH1 0x20 DUP3 ADD SWAP1 POP PUSH2 0x143 PUSH0 DUP4 ADD DUP5 PUSH2 0x121 JUMP JUMPDEST SWAP3 SWAP2 POP POP JUMP JUMPDEST PUSH32 0x4E487B7100000000000000000000000000000000000000000000000000000000 PUSH0 MSTORE PUSH1 0x11 PUSH1 0x4 MSTORE PUSH1 0x24 PUSH0 REVERT JUMPDEST PUSH0 PUSH2 0x180 DUP3 PUSH2 0xC3 JUMP JUMPDEST SWAP2 POP PUSH2 0x18B DUP4 PUSH2 0xC3 JUMP JUMPDEST SWAP3 POP DUP3 DUP3 ADD SWAP1 POP DUP1 DUP3 GT ISZERO PUSH2 0x1A3 JUMPI PUSH2 0x1A2 PUSH2 0x149 JUMP JUMPDEST JUMPDEST SWAP3 SWAP2 POP POP JUMP INVALID LOG2 PUSH5 0x6970667358 0x22 SLT KECCAK256 0xE 0xCF PUSH13 0x5520E97705147954CACCC8D9A1 0xEA 0xDF SLOAD MSIZE DUP10 0xA8 0xE5 0xD7 PUSH19 0x74A1C7F15C71E864736F6C634300081A003300 "
				},
				"gasEstimates": {
					"creation": {
						"codeDepositCost": "95800",
						"executionCost": "139",
						"totalCost": "95939"
					},
					"external": {
						"doSomething(uint256)": "infinite",
						"readData()": "2454",
						"storeData(uint256)": "22492"
					}
				},
				"methodIdentifiers": {
					"doSomething(uint256)": "a6b206bf",
					"readData()": "bef55ef3",
					"storeData(uint256)": "16b95176"
				}
			},
			"storageLayout": {
				"storage": [
					{
						"astId": 3,
						"contract": "contracts/Praktikum2/T2_NUR SALAMAH AZZAHRAH_2210631170095/DataStore2.sol:DataStore2",
						"label": "data",
						"offset": 0,
						"slot": "0",
						"type": "t_uint256"
					}
				],
				"types": {
					"t_uint256": {
						"encoding": "inplace",
						"label": "uint256",
						"numberOfBytes": "32"
					}
				}
			},
			"userdoc": {
				"kind": "user",
				"methods": {},
				"version": 1
			}
		}
	}
}