{
	"contracts/Praktikum2/T2_NUR SALAMAH AZZAHRAH_2210631170095/DataStore1.sol": {
		"DataStore1": {
			"abi": [
				{
					"inputs": [
						{
							"internalType": "uint256",
							"name": "_data",
							"type": "uint256"
						}
					],
					"name": "doSomething",
					"outputs": [],
					"stateMutability": "nonpayable",
					"type": "function"
				},
				{
					"inputs": [
						{
							"internalType": "uint256",
							"name": "_data",
							"type": "uint256"
						}
					],
					"name": "storeData",
					"outputs": [],
					"stateMutability": "nonpayable",
					"type": "function"
				}
			],
			"devdoc": {
				"kind": "dev",
				"methods": {},
				"version": 1
			},
			"evm": {
				"assembly": "    /* \"contracts/Praktikum2/T2_NUR SALAMAH AZZAHRAH_2210631170095/DataStore1.sol\":60:377  contract DataStore1 {... */\n  mstore(0x40, 0x80)\n  callvalue\n  dup1\n  iszero\n  tag_1\n  jumpi\n  0x00\n  dup1\n  revert\ntag_1:\n  pop\n  dataSize(sub_0)\n  dup1\n  dataOffset(sub_0)\n  0x00\n  codecopy\n  0x00\n  return\nstop\n\nsub_0: assembly {\n        /* \"contracts/Praktikum2/T2_NUR SALAMAH AZZAHRAH_2210631170095/DataStore1.sol\":60:377  contract DataStore1 {... */\n      mstore(0x40, 0x80)\n      callvalue\n      dup1\n      iszero\n      tag_1\n      jumpi\n      0x00\n      dup1\n      revert\n    tag_1:\n      pop\n      jumpi(tag_2, lt(calldatasize, 0x04))\n      shr(0xe0, calldataload(0x00))\n      dup1\n      0x16b95176\n      eq\n      tag_3\n      jumpi\n      dup1\n      0xa6b206bf\n      eq\n      tag_4\n      jumpi\n    tag_2:\n      0x00\n      dup1\n      revert\n        /* \"contracts/Praktikum2/T2_NUR SALAMAH AZZAHRAH_2210631170095/DataStore1.sol\":144:216  function storeData(uint256 _data) public {... */\n    tag_3:\n      tag_5\n      0x04\n      dup1\n      calldatasize\n      sub\n      dup2\n      add\n      swap1\n      tag_6\n      swap2\n      swap1\n      tag_7\n      jump\t// in\n    tag_6:\n      tag_8\n      jump\t// in\n    tag_5:\n      stop\n        /* \"contracts/Praktikum2/T2_NUR SALAMAH AZZAHRAH_2210631170095/DataStore1.sol\":290:372  function doSomething(uint256 _data) public virtual {... */\n    tag_4:\n      tag_9\n      0x04\n      dup1\n      calldatasize\n      sub\n      dup2\n      add\n      swap1\n      tag_10\n      swap2\n      swap1\n      tag_7\n      jump\t// in\n    tag_10:\n      tag_11\n      jump\t// in\n    tag_9:\n      stop\n        /* \"contracts/Praktikum2/T2_NUR SALAMAH AZZAHRAH_2210631170095/DataStore1.sol\":144:216  function storeData(uint256 _data) public {... */\n    tag_8:\n        /* \"contracts/Praktikum2/T2_NUR SALAMAH AZZAHRAH_2210631170095/DataStore1.sol\":203:208  _data */\n      dup1\n        /* \"contracts/Praktikum2/T2_NUR SALAMAH AZZAHRAH_2210631170095/DataStore1.sol\":196:200  data */\n      0x00\n        /* \"contracts/Praktikum2/T2_NUR SALAMAH AZZAHRAH_2210631170095/DataStore1.sol\":196:208  data = _data */\n      dup2\n      swap1\n      sstore\n      pop\n        /* \"contracts/Praktikum2/T2_NUR SALAMAH AZZAHRAH_2210631170095/DataStore1.sol\":144:216  function storeData(uint256 _data) public {... */\n      pop\n      jump\t// out\n        /* \"contracts/Praktikum2/T2_NUR SALAMAH AZZAHRAH_2210631170095/DataStore1.sol\":290:372  function doSomething(uint256 _data) public virtual {... */\n    tag_11:\n        /* \"contracts/Praktikum2/T2_NUR SALAMAH AZZAHRAH_2210631170095/DataStore1.sol\":359:364  _data */\n      dup1\n        /* \"contracts/Praktikum2/T2_NUR SALAMAH AZZAHRAH_2210631170095/DataStore1.sol\":352:356  data */\n      0x00\n        /* \"contracts/Praktikum2/T2_NUR SALAMAH AZZAHRAH_2210631170095/DataStore1.sol\":352:364  data = _data */\n      dup2\n      swap1\n      sstore\n      pop\n        /* \"contracts/Praktikum2/T2_NUR SALAMAH AZZAHRAH_2210631170095/DataStore1.sol\":290:372  function doSomething(uint256 _data) public virtual {... */\n      pop\n      jump\t// out\n        /* \"#utility.yul\":88:205   */\n    tag_15:\n        /* \"#utility.yul\":197:198   */\n      0x00\n        /* \"#utility.yul\":194:195   */\n      dup1\n        /* \"#utility.yul\":187:199   */\n      revert\n        /* \"#utility.yul\":334:411   */\n    tag_17:\n        /* \"#utility.yul\":371:378   */\n      0x00\n        /* \"#utility.yul\":400:405   */\n      dup2\n        /* \"#utility.yul\":389:405   */\n      swap1\n      pop\n        /* \"#utility.yul\":334:411   */\n      swap2\n      swap1\n      pop\n      jump\t// out\n        /* \"#utility.yul\":417:539   */\n    tag_18:\n        /* \"#utility.yul\":490:514   */\n      tag_26\n        /* \"#utility.yul\":508:513   */\n      dup2\n        /* \"#utility.yul\":490:514   */\n      tag_17\n      jump\t// in\n    tag_26:\n        /* \"#utility.yul\":483:488   */\n      dup2\n        /* \"#utility.yul\":480:515   */\n      eq\n        /* \"#utility.yul\":470:533   */\n      tag_27\n      jumpi\n        /* \"#utility.yul\":529:530   */\n      0x00\n        /* \"#utility.yul\":526:527   */\n      dup1\n        /* \"#utility.yul\":519:531   */\n      revert\n        /* \"#utility.yul\":470:533   */\n    tag_27:\n        /* \"#utility.yul\":417:539   */\n      pop\n      jump\t// out\n        /* \"#utility.yul\":545:684   */\n    tag_19:\n        /* \"#utility.yul\":591:596   */\n      0x00\n        /* \"#utility.yul\":629:635   */\n      dup2\n        /* \"#utility.yul\":616:636   */\n      calldataload\n        /* \"#utility.yul\":607:636   */\n      swap1\n      pop\n        /* \"#utility.yul\":645:678   */\n      tag_29\n        /* \"#utility.yul\":672:677   */\n      dup2\n        /* \"#utility.yul\":645:678   */\n      tag_18\n      jump\t// in\n    tag_29:\n        /* \"#utility.yul\":545:684   */\n      swap3\n      swap2\n      pop\n      pop\n      jump\t// out\n        /* \"#utility.yul\":690:1019   */\n    tag_7:\n        /* \"#utility.yul\":749:755   */\n      0x00\n        /* \"#utility.yul\":798:800   */\n      0x20\n        /* \"#utility.yul\":786:795   */\n      dup3\n        /* \"#utility.yul\":777:784   */\n      dup5\n        /* \"#utility.yul\":773:796   */\n      sub\n        /* \"#utility.yul\":769:801   */\n      slt\n        /* \"#utility.yul\":766:885   */\n      iszero\n      tag_31\n      jumpi\n        /* \"#utility.yul\":804:883   */\n      tag_32\n      tag_15\n      jump\t// in\n    tag_32:\n        /* \"#utility.yul\":766:885   */\n    tag_31:\n        /* \"#utility.yul\":924:925   */\n      0x00\n        /* \"#utility.yul\":949:1002   */\n      tag_33\n        /* \"#utility.yul\":994:1001   */\n      dup5\n        /* \"#utility.yul\":985:991   */\n      dup3\n        /* \"#utility.yul\":974:983   */\n      dup6\n        /* \"#utility.yul\":970:992   */\n      add\n        /* \"#utility.yul\":949:1002   */\n      tag_19\n      jump\t// in\n    tag_33:\n        /* \"#utility.yul\":939:1002   */\n      swap2\n      pop\n        /* \"#utility.yul\":895:1012   */\n      pop\n        /* \"#utility.yul\":690:1019   */\n      swap3\n      swap2\n      pop\n      pop\n      jump\t// out\n\n    auxdata: 0xa264697066735822122035d339d758ad23bf2c7d65ee58570cc5974afbeabcce880169cc1207adf26c9964736f6c634300081a0033\n}\n",
				"bytecode": {
					"linkReferences": {},
					"object": "6080604052348015600e575f80fd5b506101048061001c5f395ff3fe6080604052348015600e575f80fd5b50600436106030575f3560e01c806316b95176146034578063a6b206bf14604c575b5f80fd5b604a60048036038101906046919060a8565b6064565b005b60626004803603810190605e919060a8565b606d565b005b805f8190555050565b805f8190555050565b5f80fd5b5f819050919050565b608a81607a565b81146093575f80fd5b50565b5f8135905060a2816083565b92915050565b5f6020828403121560ba5760b96076565b5b5f60c5848285016096565b9150509291505056fea264697066735822122035d339d758ad23bf2c7d65ee58570cc5974afbeabcce880169cc1207adf26c9964736f6c634300081a0033",
					"opcodes": "PUSH1 0x80 PUSH1 0x40 MSTORE CALLVALUE DUP1 ISZERO PUSH1 0xE JUMPI PUSH0 DUP1 REVERT JUMPDEST POP PUSH2 0x104 DUP1 PUSH2 0x1C PUSH0 CODECOPY PUSH0 RETURN INVALID PUSH1 0x80 PUSH1 0x40 MSTORE CALLVALUE DUP1 ISZERO PUSH1 0xE JUMPI PUSH0 DUP1 REVERT JUMPDEST POP PUSH1 0x4 CALLDATASIZE LT PUSH1 0x30 JUMPI PUSH0 CALLDATALOAD PUSH1 0xE0 SHR DUP1 PUSH4 0x16B95176 EQ PUSH1 0x34 JUMPI DUP1 PUSH4 0xA6B206BF EQ PUSH1 0x4C JUMPI JUMPDEST PUSH0 DUP1 REVERT JUMPDEST PUSH1 0x4A PUSH1 0x4 DUP1 CALLDATASIZE SUB DUP2 ADD SWAP1 PUSH1 0x46 SWAP2 SWAP1 PUSH1 0xA8 JUMP JUMPDEST PUSH1 0x64 JUMP JUMPDEST STOP JUMPDEST PUSH1 0x62 PUSH1 0x4 DUP1 CALLDATASIZE SUB DUP2 ADD SWAP1 PUSH1 0x5E SWAP2 SWAP1 PUSH1 0xA8 JUMP JUMPDEST PUSH1 0x6D JUMP JUMPDEST STOP JUMPDEST DUP1 PUSH0 DUP2 SWAP1 SSTORE POP POP JUMP JUMPDEST DUP1 PUSH0 DUP2 SWAP1 SSTORE POP POP JUMP JUMPDEST PUSH0 DUP1 REVERT JUMPDEST PUSH0 DUP2 SWAP1 POP SWAP2 SWAP1 POP JUMP JUMPDEST PUSH1 0x8A DUP2 PUSH1 0x7A JUMP JUMPDEST DUP2 EQ PUSH1 0x93 JUMPI PUSH0 DUP1 REVERT JUMPDEST POP JUMP JUMPDEST PUSH0 DUP2 CALLDATALOAD SWAP1 POP PUSH1 0xA2 DUP2 PUSH1 0x83 JUMP JUMPDEST SWAP3 SWAP2 POP POP JUMP JUMPDEST PUSH0 PUSH1 0x20 DUP3 DUP5 SUB SLT ISZERO PUSH1 0xBA JUMPI PUSH1 0xB9 PUSH1 0x76 JUMP JUMPDEST JUMPDEST PUSH0 PUSH1 0xC5 DUP5 DUP3 DUP6 ADD PUSH1 0x96 JUMP JUMPDEST SWAP2 POP POP SWAP3 SWAP2 POP POP JUMP INVALID LOG2 PUSH5 0x6970667358 0x22 SLT KECCAK256 CALLDATALOAD 0xD3 CODECOPY 0xD7 PC 0xAD 0x23 0xBF 0x2C PUSH30 0x65EE58570CC5974AFBEABCCE880169CC1207ADF26C9964736F6C63430008 BYTE STOP CALLER "
				},
				"gasEstimates": {
					"creation": {
						"codeDepositCost": "52000",
						"executionCost": "103",
						"totalCost": "52103"
					},
					"external": {
						"doSomething(uint256)": "22514",
						"storeData(uint256)": "22492"
					}
				},
				"methodIdentifiers": {
					"doSomething(uint256)": "a6b206bf",
					"storeData(uint256)": "16b95176"
				}
			},
			"storageLayout": {
				"storage": [
					{
						"astId": 3,
						"contract": "contracts/Praktikum2/T2_NUR SALAMAH AZZAHRAH_2210631170095/DataStore1.sol:DataStore1",
						"label": "data",
						"offset": 0,
						"slot": "0",
						"type": "t_uint256"
					}
				],
				"types": {
					"t_uint256": {
						"encoding": "inplace",
						"label": "uint256",
						"numberOfBytes": "32"
					}
				}
			},
			"userdoc": {
				"kind": "user",
				"methods": {},
				"version": 1
			}
		}
	}
}